{
  "contractName": "Tournament",
  "abi": [
    {
      "inputs": [],
      "stateMutability": "nonpayable",
      "type": "constructor"
    },
    {
      "anonymous": false,
      "inputs": [
        {
          "indexed": false,
          "internalType": "uint256",
          "name": "postId",
          "type": "uint256"
        },
        {
          "indexed": false,
          "internalType": "string",
          "name": "actionType",
          "type": "string"
        },
        {
          "indexed": false,
          "internalType": "enum Tournament.Status",
          "name": "deleted",
          "type": "uint8"
        },
        {
          "indexed": true,
          "internalType": "address",
          "name": "executor",
          "type": "address"
        },
        {
          "indexed": false,
          "internalType": "uint256",
          "name": "created",
          "type": "uint256"
        }
      ],
      "name": "Action",
      "type": "event"
    },
    {
      "inputs": [],
      "name": "owner",
      "outputs": [
        {
          "internalType": "address",
          "name": "",
          "type": "address"
        }
      ],
      "stateMutability": "view",
      "type": "function",
      "constant": true
    },
    {
      "inputs": [
        {
          "internalType": "address",
          "name": "",
          "type": "address"
        }
      ],
      "name": "ownerTournamentCount",
      "outputs": [
        {
          "internalType": "uint256",
          "name": "",
          "type": "uint256"
        }
      ],
      "stateMutability": "view",
      "type": "function",
      "constant": true
    },
    {
      "inputs": [
        {
          "internalType": "address",
          "name": "",
          "type": "address"
        }
      ],
      "name": "participantToTournament",
      "outputs": [
        {
          "internalType": "uint256",
          "name": "",
          "type": "uint256"
        }
      ],
      "stateMutability": "view",
      "type": "function",
      "constant": true
    },
    {
      "inputs": [
        {
          "internalType": "address",
          "name": "",
          "type": "address"
        }
      ],
      "name": "tounamentPlayerCounter",
      "outputs": [
        {
          "internalType": "uint256",
          "name": "",
          "type": "uint256"
        }
      ],
      "stateMutability": "view",
      "type": "function",
      "constant": true
    },
    {
      "inputs": [
        {
          "internalType": "uint256",
          "name": "",
          "type": "uint256"
        }
      ],
      "name": "tournamentToOwner",
      "outputs": [
        {
          "internalType": "address",
          "name": "",
          "type": "address"
        }
      ],
      "stateMutability": "view",
      "type": "function",
      "constant": true
    },
    {
      "inputs": [
        {
          "internalType": "uint256",
          "name": "",
          "type": "uint256"
        },
        {
          "internalType": "uint256",
          "name": "",
          "type": "uint256"
        }
      ],
      "name": "tournamentToParticipant",
      "outputs": [
        {
          "internalType": "address",
          "name": "",
          "type": "address"
        }
      ],
      "stateMutability": "view",
      "type": "function",
      "constant": true
    },
    {
      "inputs": [
        {
          "internalType": "string",
          "name": "name",
          "type": "string"
        },
        {
          "internalType": "uint256",
          "name": "date_de_debut",
          "type": "uint256"
        },
        {
          "internalType": "uint256",
          "name": "date_de_fin",
          "type": "uint256"
        },
        {
          "internalType": "address[]",
          "name": "participant",
          "type": "address[]"
        },
        {
          "internalType": "uint256",
          "name": "nombreParticipant",
          "type": "uint256"
        }
      ],
      "name": "createTournament",
      "outputs": [
        {
          "internalType": "bool",
          "name": "",
          "type": "bool"
        }
      ],
      "stateMutability": "nonpayable",
      "type": "function"
    },
    {
      "inputs": [],
      "name": "getMesTournoisOrganise",
      "outputs": [
        {
          "components": [
            {
              "internalType": "uint256",
              "name": "tournamentId",
              "type": "uint256"
            },
            {
              "internalType": "string",
              "name": "name",
              "type": "string"
            },
            {
              "internalType": "address",
              "name": "createur",
              "type": "address"
            },
            {
              "internalType": "enum Tournament.Status",
              "name": "status",
              "type": "uint8"
            },
            {
              "internalType": "uint256",
              "name": "date_de_debut",
              "type": "uint256"
            },
            {
              "internalType": "uint256",
              "name": "date_de_fin",
              "type": "uint256"
            },
            {
              "internalType": "address[]",
              "name": "participants",
              "type": "address[]"
            },
            {
              "internalType": "address[]",
              "name": "checked",
              "type": "address[]"
            },
            {
              "internalType": "uint256",
              "name": "nombreParticipants",
              "type": "uint256"
            }
          ],
          "internalType": "struct Tournament.TournamentStruct[]",
          "name": "",
          "type": "tuple[]"
        }
      ],
      "stateMutability": "view",
      "type": "function",
      "constant": true
    },
    {
      "inputs": [
        {
          "internalType": "uint256",
          "name": "_tournamentId",
          "type": "uint256"
        }
      ],
      "name": "checkIn",
      "outputs": [],
      "stateMutability": "nonpayable",
      "type": "function"
    }
  ],
  "bytecode": "0x6080604052600060015534801561001557600080fd5b50336000806101000a81548173ffffffffffffffffffffffffffffffffffffffff021916908373ffffffffffffffffffffffffffffffffffffffff160217905550611b04806100656000396000f3fe608060405234801561001057600080fd5b50600436106100935760003560e01c80638da5cb5b116100665780638da5cb5b14610146578063c68f8dcd14610164578063dfb0319a14610194578063e95a644f146101c4578063fed53ae3146101e057610093565b80630a563ba9146100985780630a579350146100b65780630c77775c146100e65780634300cef714610116575b600080fd5b6100a0610210565b6040516100ad9190611147565b60405180910390f35b6100d060048036038101906100cb91906111a9565b610632565b6040516100dd91906111f8565b60405180910390f35b61010060048036038101906100fb919061123f565b610680565b60405161010d919061127b565b60405180910390f35b610130600480360381019061012b919061123f565b610698565b60405161013d919061127b565b60405180910390f35b61014e6106b0565b60405161015b91906111f8565b60405180910390f35b61017e60048036038101906101799190611493565b6106d4565b60405161018b9190611561565b60405180910390f35b6101ae60048036038101906101a9919061123f565b610ab1565b6040516101bb919061127b565b60405180910390f35b6101de60048036038101906101d9919061157c565b610ac9565b005b6101fa60048036038101906101f5919061157c565b610c54565b60405161020791906111f8565b60405180910390f35b60606000600267ffffffffffffffff81111561022f5761022e6112a0565b5b60405190808252806020026020018201604052801561026857816020015b610255610c87565b81526020019060019003908161024d5790505b5090506000805b6007805490508110156106295760005b60078281548110610293576102926115a9565b5b906000526020600020906008020160070154811015610615573373ffffffffffffffffffffffffffffffffffffffff16600783815481106102d7576102d66115a9565b5b906000526020600020906008020160050182815481106102fa576102f96115a9565b5b9060005260206000200160009054906101000a900473ffffffffffffffffffffffffffffffffffffffff1673ffffffffffffffffffffffffffffffffffffffff16036106025760078281548110610354576103536115a9565b5b9060005260206000209060080201604051806101200160405290816000820154815260200160018201805461038890611607565b80601f01602080910402602001604051908101604052809291908181526020018280546103b490611607565b80156104015780601f106103d657610100808354040283529160200191610401565b820191906000526020600020905b8154815290600101906020018083116103e457829003601f168201915b505050505081526020016002820160009054906101000a900473ffffffffffffffffffffffffffffffffffffffff1673ffffffffffffffffffffffffffffffffffffffff1673ffffffffffffffffffffffffffffffffffffffff1681526020016002820160149054906101000a900460ff16600381111561048557610484610eb8565b5b600381111561049757610496610eb8565b5b815260200160038201548152602001600482015481526020016005820180548060200260200160405190810160405280929190818152602001828054801561053457602002820191906000526020600020905b8160009054906101000a900473ffffffffffffffffffffffffffffffffffffffff1673ffffffffffffffffffffffffffffffffffffffff16815260200190600101908083116104ea575b50505050508152602001600682018054806020026020016040519081016040528092919081815260200182805480156105c257602002820191906000526020600020905b8160009054906101000a900473ffffffffffffffffffffffffffffffffffffffff1673ffffffffffffffffffffffffffffffffffffffff1681526020019060010190808311610578575b505050505081526020016007820154815250508484815181106105e8576105e76115a9565b5b602002602001018190525082806105fe90611667565b9350505b808061060d90611667565b91505061027f565b50808061062190611667565b91505061026f565b50819250505090565b6004602052816000526040600020818154811061064e57600080fd5b906000526020600020016000915091509054906101000a900473ffffffffffffffffffffffffffffffffffffffff1681565b60066020528060005260406000206000915090505481565b60036020528060005260406000206000915090505481565b60008054906101000a900473ffffffffffffffffffffffffffffffffffffffff1681565b600080865111610719576040517f08c379a00000000000000000000000000000000000000000000000000000000081526004016107109061170c565b60405180910390fd5b6000851161075c576040517f08c379a00000000000000000000000000000000000000000000000000000000081526004016107539061179e565b60405180910390fd5b6000841161079f576040517f08c379a00000000000000000000000000000000000000000000000000000000081526004016107969061179e565b60405180910390fd5b60018351116107e3576040517f08c379a00000000000000000000000000000000000000000000000000000000081526004016107da90611830565b60405180910390fd5b3360026000600154815260200190815260200160002060006101000a81548173ffffffffffffffffffffffffffffffffffffffff021916908373ffffffffffffffffffffffffffffffffffffffff160217905550600360003373ffffffffffffffffffffffffffffffffffffffff1673ffffffffffffffffffffffffffffffffffffffff168152602001908152602001600020600081548092919061088790611667565b91905055506000600760018160018154018082558091505003906000526020600020906008020190506001548160000181905550868160010190816108cc91906119fc565b5060008160020160146101000a81548160ff021916908360038111156108f5576108f4610eb8565b5b0217905550338160020160006101000a81548173ffffffffffffffffffffffffffffffffffffffff021916908373ffffffffffffffffffffffffffffffffffffffff16021790555085816003018190555084816004018190555083816005019080519060200190610967929190610cfb565b50828160070181905550600067ffffffffffffffff81111561098c5761098b6112a0565b5b6040519080825280602002602001820160405280156109ba5781602001602082028036833780820191505090505b508160060190805190602001906109d2929190610cfb565b508360046000600154815260200190815260200160002090805190602001906109fc929190610cfb565b5060005b83811015610a8a5760066000868381518110610a1f57610a1e6115a9565b5b602002602001015173ffffffffffffffffffffffffffffffffffffffff1673ffffffffffffffffffffffffffffffffffffffff1681526020019081526020016000206000815480929190610a7290611667565b91905055508080610a8290611667565b915050610a00565b5060016000815480929190610a9e90611667565b9190505550600191505095945050505050565b60056020528060005260406000206000915090505481565b600060078281548110610adf57610ade6115a9565b5b9060005260206000209060080201905080600601339080600181540180825580915050600190039060005260206000200160009091909190916101000a81548173ffffffffffffffffffffffffffffffffffffffff021916908373ffffffffffffffffffffffffffffffffffffffff16021790555060005b8160070154811015610c4f573373ffffffffffffffffffffffffffffffffffffffff16826005018281548110610b9057610b8f6115a9565b5b9060005260206000200160009054906101000a900473ffffffffffffffffffffffffffffffffffffffff1673ffffffffffffffffffffffffffffffffffffffff1603610c3c5781600601339080600181540180825580915050600190039060005260206000200160009091909190916101000a81548173ffffffffffffffffffffffffffffffffffffffff021916908373ffffffffffffffffffffffffffffffffffffffff1602179055505b8080610c4790611667565b915050610b57565b505050565b60026020528060005260406000206000915054906101000a900473ffffffffffffffffffffffffffffffffffffffff1681565b6040518061012001604052806000815260200160608152602001600073ffffffffffffffffffffffffffffffffffffffff16815260200160006003811115610cd257610cd1610eb8565b5b815260200160008152602001600081526020016060815260200160608152602001600081525090565b828054828255906000526020600020908101928215610d74579160200282015b82811115610d735782518260006101000a81548173ffffffffffffffffffffffffffffffffffffffff021916908373ffffffffffffffffffffffffffffffffffffffff16021790555091602001919060010190610d1b565b5b509050610d819190610d85565b5090565b5b80821115610d9e576000816000905550600101610d86565b5090565b600081519050919050565b600082825260208201905092915050565b6000819050602082019050919050565b6000819050919050565b610de181610dce565b82525050565b600081519050919050565b600082825260208201905092915050565b60005b83811015610e21578082015181840152602081019050610e06565b60008484015250505050565b6000601f19601f8301169050919050565b6000610e4982610de7565b610e538185610df2565b9350610e63818560208601610e03565b610e6c81610e2d565b840191505092915050565b600073ffffffffffffffffffffffffffffffffffffffff82169050919050565b6000610ea282610e77565b9050919050565b610eb281610e97565b82525050565b7f4e487b7100000000000000000000000000000000000000000000000000000000600052602160045260246000fd5b60048110610ef857610ef7610eb8565b5b50565b6000819050610f0982610ee7565b919050565b6000610f1982610efb565b9050919050565b610f2981610f0e565b82525050565b600081519050919050565b600082825260208201905092915050565b6000819050602082019050919050565b6000610f678383610ea9565b60208301905092915050565b6000602082019050919050565b6000610f8b82610f2f565b610f958185610f3a565b9350610fa083610f4b565b8060005b83811015610fd1578151610fb88882610f5b565b9750610fc383610f73565b925050600181019050610fa4565b5085935050505092915050565b600061012083016000830151610ff76000860182610dd8565b506020830151848203602086015261100f8282610e3e565b91505060408301516110246040860182610ea9565b5060608301516110376060860182610f20565b50608083015161104a6080860182610dd8565b5060a083015161105d60a0860182610dd8565b5060c083015184820360c08601526110758282610f80565b91505060e083015184820360e086015261108f8282610f80565b9150506101008301516110a6610100860182610dd8565b508091505092915050565b60006110bd8383610fde565b905092915050565b6000602082019050919050565b60006110dd82610da2565b6110e78185610dad565b9350836020820285016110f985610dbe565b8060005b85811015611135578484038952815161111685826110b1565b9450611121836110c5565b925060208a019950506001810190506110fd565b50829750879550505050505092915050565b6000602082019050818103600083015261116181846110d2565b905092915050565b6000604051905090565b600080fd5b600080fd5b61118681610dce565b811461119157600080fd5b50565b6000813590506111a38161117d565b92915050565b600080604083850312156111c0576111bf611173565b5b60006111ce85828601611194565b92505060206111df85828601611194565b9150509250929050565b6111f281610e97565b82525050565b600060208201905061120d60008301846111e9565b92915050565b61121c81610e97565b811461122757600080fd5b50565b60008135905061123981611213565b92915050565b60006020828403121561125557611254611173565b5b60006112638482850161122a565b91505092915050565b61127581610dce565b82525050565b6000602082019050611290600083018461126c565b92915050565b600080fd5b600080fd5b7f4e487b7100000000000000000000000000000000000000000000000000000000600052604160045260246000fd5b6112d882610e2d565b810181811067ffffffffffffffff821117156112f7576112f66112a0565b5b80604052505050565b600061130a611169565b905061131682826112cf565b919050565b600067ffffffffffffffff821115611336576113356112a0565b5b61133f82610e2d565b9050602081019050919050565b82818337600083830152505050565b600061136e6113698461131b565b611300565b90508281526020810184848401111561138a5761138961129b565b5b61139584828561134c565b509392505050565b600082601f8301126113b2576113b1611296565b5b81356113c284826020860161135b565b91505092915050565b600067ffffffffffffffff8211156113e6576113e56112a0565b5b602082029050602081019050919050565b600080fd5b600061140f61140a846113cb565b611300565b90508083825260208201905060208402830185811115611432576114316113f7565b5b835b8181101561145b5780611447888261122a565b845260208401935050602081019050611434565b5050509392505050565b600082601f83011261147a57611479611296565b5b813561148a8482602086016113fc565b91505092915050565b600080600080600060a086880312156114af576114ae611173565b5b600086013567ffffffffffffffff8111156114cd576114cc611178565b5b6114d98882890161139d565b95505060206114ea88828901611194565b94505060406114fb88828901611194565b935050606086013567ffffffffffffffff81111561151c5761151b611178565b5b61152888828901611465565b925050608061153988828901611194565b9150509295509295909350565b60008115159050919050565b61155b81611546565b82525050565b60006020820190506115766000830184611552565b92915050565b60006020828403121561159257611591611173565b5b60006115a084828501611194565b91505092915050565b7f4e487b7100000000000000000000000000000000000000000000000000000000600052603260045260246000fd5b7f4e487b7100000000000000000000000000000000000000000000000000000000600052602260045260246000fd5b6000600282049050600182168061161f57607f821691505b602082108103611632576116316115d8565b5b50919050565b7f4e487b7100000000000000000000000000000000000000000000000000000000600052601160045260246000fd5b600061167282610dce565b91507fffffffffffffffffffffffffffffffffffffffffffffffffffffffffffffffff82036116a4576116a3611638565b5b600182019050919050565b600082825260208201905092915050565b7f5469746c652063616e6e6f7420626520656d7074790000000000000000000000600082015250565b60006116f66015836116af565b9150611701826116c0565b602082019050919050565b60006020820190508181036000830152611725816116e9565b9050919050565b7f566575696c6c657a20707265636973657a20756e65206461746520646520646560008201527f6275740000000000000000000000000000000000000000000000000000000000602082015250565b60006117886023836116af565b91506117938261172c565b604082019050919050565b600060208201905081810360008301526117b78161177b565b9050919050565b7f566575696c6c657a20616a6f75746572206175206d6f696e732032206a6f756560008201527f7572730000000000000000000000000000000000000000000000000000000000602082015250565b600061181a6023836116af565b9150611825826117be565b604082019050919050565b600060208201905081810360008301526118498161180d565b9050919050565b60008190508160005260206000209050919050565b60006020601f8301049050919050565b600082821b905092915050565b6000600883026118b27fffffffffffffffffffffffffffffffffffffffffffffffffffffffffffffffff82611875565b6118bc8683611875565b95508019841693508086168417925050509392505050565b6000819050919050565b60006118f96118f46118ef84610dce565b6118d4565b610dce565b9050919050565b6000819050919050565b611913836118de565b61192761191f82611900565b848454611882565b825550505050565b600090565b61193c61192f565b61194781848461190a565b505050565b5b8181101561196b57611960600082611934565b60018101905061194d565b5050565b601f8211156119b05761198181611850565b61198a84611865565b81016020851015611999578190505b6119ad6119a585611865565b83018261194c565b50505b505050565b600082821c905092915050565b60006119d3600019846008026119b5565b1980831691505092915050565b60006119ec83836119c2565b9150826002028217905092915050565b611a0582610de7565b67ffffffffffffffff811115611a1e57611a1d6112a0565b5b611a288254611607565b611a3382828561196f565b600060209050601f831160018114611a665760008415611a54578287015190505b611a5e85826119e0565b865550611ac6565b601f198416611a7486611850565b60005b82811015611a9c57848901518255600182019150602085019450602081019050611a77565b86831015611ab95784890151611ab5601f8916826119c2565b8355505b6001600288020188555050505b50505050505056fea2646970667358221220baaef8dfe5e903a8da7f435468bc02d4a94fbd7d513f6ac8da79409be5e2a57f64736f6c63430008110033",
  "immutableReferences": {},
  "source": "pragma solidity >=0.7.0 <0.9.0;\r\n\r\ncontract Tournament {\r\n\r\n    address public owner;\r\n    uint256 private tournamentId = 0;\r\n\r\n    mapping(uint256 => address) public tournamentToOwner;\r\n    mapping(address => uint256) public ownerTournamentCount;\r\n\r\n    mapping(uint => address[]) public tournamentToParticipant;\r\n    mapping(address => uint) public participantToTournament;\r\n\r\n    mapping(address => uint) public tounamentPlayerCounter;\r\n\r\n\r\n    enum Status { preparation, check_in, en_cours, termine }\r\n\r\n    struct TournamentStruct {\r\n        uint256 tournamentId;\r\n        string name;\r\n        address createur;\r\n        Status status;\r\n        uint256 date_de_debut;\r\n        uint256 date_de_fin;\r\n        address[] participants;\r\n        address[] checked;\r\n        uint nombreParticipants;\r\n    }\r\n\r\n\r\n    struct Participant {\r\n        address participantAddrr;\r\n        bool checked_in;\r\n    }\r\n\r\n    TournamentStruct[] tournois;\r\n\r\n\r\n    event Action (\r\n        uint256 postId,\r\n        string actionType,\r\n        Status deleted,\r\n        address indexed executor,\r\n        uint256 created\r\n    );\r\n\r\n    modifier ownerOnly(){\r\n        require(msg.sender == owner, \"Owner reserved only\");\r\n        _;\r\n    }\r\n\r\n    constructor() {\r\n        owner = msg.sender;\r\n    }\r\n\r\n    function createTournament(\r\n        string memory name,\r\n        uint date_de_debut,\r\n        uint date_de_fin,\r\n        address[] memory participant,\r\n        uint nombreParticipant\r\n\r\n    ) external returns (bool) {\r\n        require(bytes(name).length > 0, \"Title cannot be empty\");\r\n        require(date_de_debut > 0, \"Veuillez precisez une date de debut\");\r\n        require(date_de_fin > 0, \"Veuillez precisez une date de debut\");\r\n        require(participant.length > 1, \"Veuillez ajouter au moins 2 joueurs\");\r\n\r\n        tournamentToOwner[tournamentId] = msg.sender;\r\n        ownerTournamentCount[msg.sender]++;\r\n\r\n        TournamentStruct storage tournoi = tournois.push();\r\n        tournoi.tournamentId = tournamentId;\r\n        tournoi.name = name;\r\n        tournoi.status = Status.preparation;\r\n        tournoi.createur = msg.sender;\r\n        tournoi.date_de_debut = date_de_debut;\r\n        tournoi.date_de_fin = date_de_fin;\r\n        tournoi.participants = participant;\r\n        tournoi.nombreParticipants = nombreParticipant;\r\n        tournoi.checked = new address[](0x0);\r\n\r\n        //tournaments[tournamentId] = TournamentStruct({ tournamentId: tournamentId,\r\n        //name: name,\r\n       // status: Status.preparation,\r\n       // createur: msg.sender,\r\n       // date_de_debut: date_de_debut,\r\n       // date_de_fin: date_de_fin,\r\n       // participants: participant,\r\n       // nombreParticipants: nombreParticipant});\r\n\r\n        // ajout des participant dans la base\r\n         tournamentToParticipant[tournamentId] = participant;\r\n\r\n         //count\r\n         for(uint i = 0; i < nombreParticipant; i++) {\r\n             tounamentPlayerCounter[participant[i]]++;\r\n         }\r\n\r\n        tournamentId++;\r\n        return true;\r\n    }\r\n\r\n    function getMesTournoisOrganise() external view returns (TournamentStruct[] memory) {\r\n        TournamentStruct[] memory result = new TournamentStruct[](2);\r\n        uint count = 0;\r\n        for(uint i = 0; i < tournois.length; i++) {\r\n            for(uint y = 0; y < tournois[i].nombreParticipants; y++) {\r\n                if(tournois[i].participants[y] == msg.sender) {\r\n                    result[count] = tournois[i];\r\n                    count++;\r\n                }\r\n               \r\n            }\r\n    \r\n        }\r\n        return result;\r\n    }\r\n\r\n    \r\n    function checkIn(uint _tournamentId) external {\r\n        TournamentStruct storage tr = tournois[_tournamentId];\r\n        tr.checked.push(msg.sender);\r\n        for(uint i = 0; i < tr.nombreParticipants; i++) {\r\n            if(tr.participants[i] == msg.sender) {\r\n                tr.checked.push(msg.sender);\r\n            } \r\n        }\r\n    }\r\n\r\n\r\n}",
  "sourcePath": "/home/jocam/Documents/esgi/Projet annuel/front/SaltyScuttler/contracts/Tournament.sol",
  "compiler": {
    "name": "solc",
    "version": "0.8.17+commit.8df45f5f.Emscripten.clang"
  },
  "schemaVersion": "3.4.10",
  "updatedAt": "2023-06-29T00:43:10.143Z",
  "networkType": "ethereum",
  "devdoc": {
    "kind": "dev",
    "methods": {},
    "version": 1
  },
  "userdoc": {
    "kind": "user",
    "methods": {},
    "version": 1
  }
}